{
  "abi": [
    {
      "type": "constructor",
      "inputs": [
        {
          "name": "_treasury",
          "type": "address",
          "internalType": "address"
        },
        {
          "name": "_governanceToken",
          "type": "address",
          "internalType": "address"
        }
      ],
      "stateMutability": "nonpayable"
    },
    {
      "type": "function",
      "name": "createProposal",
      "inputs": [
        {
          "name": "_description",
          "type": "string",
          "internalType": "string"
        },
        {
          "name": "_duration",
          "type": "uint256",
          "internalType": "uint256"
        }
      ],
      "outputs": [],
      "stateMutability": "nonpayable"
    },
    {
      "type": "function",
      "name": "executeTheProposal",
      "inputs": [
        {
          "name": "_proposalId",
          "type": "uint256",
          "internalType": "uint256"
        }
      ],
      "outputs": [],
      "stateMutability": "nonpayable"
    },
    {
      "type": "function",
      "name": "getActiveProposals",
      "inputs": [],
      "outputs": [
        {
          "name": "",
          "type": "tuple[]",
          "internalType": "struct AquaDAO.ProposalForDisplay[]",
          "components": [
            {
              "name": "id",
              "type": "uint256",
              "internalType": "uint256"
            },
            {
              "name": "proposer",
              "type": "address",
              "internalType": "address"
            },
            {
              "name": "description",
              "type": "string",
              "internalType": "string"
            },
            {
              "name": "votesFor",
              "type": "uint256",
              "internalType": "uint256"
            },
            {
              "name": "votesAgainst",
              "type": "uint256",
              "internalType": "uint256"
            },
            {
              "name": "deadline",
              "type": "uint256",
              "internalType": "uint256"
            },
            {
              "name": "executed",
              "type": "bool",
              "internalType": "bool"
            },
            {
              "name": "isProposalHasPassed",
              "type": "bool",
              "internalType": "bool"
            }
          ]
        }
      ],
      "stateMutability": "view"
    },
    {
      "type": "function",
      "name": "getExecutedProposals",
      "inputs": [],
      "outputs": [
        {
          "name": "",
          "type": "tuple[]",
          "internalType": "struct AquaDAO.ProposalForDisplay[]",
          "components": [
            {
              "name": "id",
              "type": "uint256",
              "internalType": "uint256"
            },
            {
              "name": "proposer",
              "type": "address",
              "internalType": "address"
            },
            {
              "name": "description",
              "type": "string",
              "internalType": "string"
            },
            {
              "name": "votesFor",
              "type": "uint256",
              "internalType": "uint256"
            },
            {
              "name": "votesAgainst",
              "type": "uint256",
              "internalType": "uint256"
            },
            {
              "name": "deadline",
              "type": "uint256",
              "internalType": "uint256"
            },
            {
              "name": "executed",
              "type": "bool",
              "internalType": "bool"
            },
            {
              "name": "isProposalHasPassed",
              "type": "bool",
              "internalType": "bool"
            }
          ]
        }
      ],
      "stateMutability": "view"
    },
    {
      "type": "function",
      "name": "getFailedProposals",
      "inputs": [],
      "outputs": [
        {
          "name": "",
          "type": "tuple[]",
          "internalType": "struct AquaDAO.ProposalForDisplay[]",
          "components": [
            {
              "name": "id",
              "type": "uint256",
              "internalType": "uint256"
            },
            {
              "name": "proposer",
              "type": "address",
              "internalType": "address"
            },
            {
              "name": "description",
              "type": "string",
              "internalType": "string"
            },
            {
              "name": "votesFor",
              "type": "uint256",
              "internalType": "uint256"
            },
            {
              "name": "votesAgainst",
              "type": "uint256",
              "internalType": "uint256"
            },
            {
              "name": "deadline",
              "type": "uint256",
              "internalType": "uint256"
            },
            {
              "name": "executed",
              "type": "bool",
              "internalType": "bool"
            },
            {
              "name": "isProposalHasPassed",
              "type": "bool",
              "internalType": "bool"
            }
          ]
        }
      ],
      "stateMutability": "view"
    },
    {
      "type": "function",
      "name": "getIsHasVoted",
      "inputs": [
        {
          "name": "_proposalId",
          "type": "uint256",
          "internalType": "uint256"
        },
        {
          "name": "_voter",
          "type": "address",
          "internalType": "address"
        }
      ],
      "outputs": [
        {
          "name": "",
          "type": "bool",
          "internalType": "bool"
        }
      ],
      "stateMutability": "view"
    },
    {
      "type": "function",
      "name": "getIsProposalHasPassed",
      "inputs": [
        {
          "name": "_proposalId",
          "type": "uint256",
          "internalType": "uint256"
        }
      ],
      "outputs": [
        {
          "name": "",
          "type": "bool",
          "internalType": "bool"
        }
      ],
      "stateMutability": "view"
    },
    {
      "type": "function",
      "name": "getProposalDetail",
      "inputs": [
        {
          "name": "_proposalId",
          "type": "uint256",
          "internalType": "uint256"
        }
      ],
      "outputs": [
        {
          "name": "",
          "type": "tuple",
          "internalType": "struct AquaDAO.ProposalForDisplay",
          "components": [
            {
              "name": "id",
              "type": "uint256",
              "internalType": "uint256"
            },
            {
              "name": "proposer",
              "type": "address",
              "internalType": "address"
            },
            {
              "name": "description",
              "type": "string",
              "internalType": "string"
            },
            {
              "name": "votesFor",
              "type": "uint256",
              "internalType": "uint256"
            },
            {
              "name": "votesAgainst",
              "type": "uint256",
              "internalType": "uint256"
            },
            {
              "name": "deadline",
              "type": "uint256",
              "internalType": "uint256"
            },
            {
              "name": "executed",
              "type": "bool",
              "internalType": "bool"
            },
            {
              "name": "isProposalHasPassed",
              "type": "bool",
              "internalType": "bool"
            }
          ]
        }
      ],
      "stateMutability": "view"
    },
    {
      "type": "function",
      "name": "getTotalProposalsCount",
      "inputs": [],
      "outputs": [
        {
          "name": "",
          "type": "uint256",
          "internalType": "uint256"
        }
      ],
      "stateMutability": "view"
    },
    {
      "type": "function",
      "name": "proposals",
      "inputs": [
        {
          "name": "",
          "type": "uint256",
          "internalType": "uint256"
        }
      ],
      "outputs": [
        {
          "name": "id",
          "type": "uint256",
          "internalType": "uint256"
        },
        {
          "name": "proposer",
          "type": "address",
          "internalType": "address"
        },
        {
          "name": "description",
          "type": "string",
          "internalType": "string"
        },
        {
          "name": "votesFor",
          "type": "uint256",
          "internalType": "uint256"
        },
        {
          "name": "votesAgainst",
          "type": "uint256",
          "internalType": "uint256"
        },
        {
          "name": "deadline",
          "type": "uint256",
          "internalType": "uint256"
        },
        {
          "name": "executed",
          "type": "bool",
          "internalType": "bool"
        },
        {
          "name": "isProposalHasPassed",
          "type": "bool",
          "internalType": "bool"
        }
      ],
      "stateMutability": "view"
    },
    {
      "type": "function",
      "name": "vote",
      "inputs": [
        {
          "name": "_proposalId",
          "type": "uint256",
          "internalType": "uint256"
        },
        {
          "name": "_support",
          "type": "bool",
          "internalType": "bool"
        }
      ],
      "outputs": [],
      "stateMutability": "nonpayable"
    },
    {
      "type": "event",
      "name": "ProposalCreated",
      "inputs": [
        {
          "name": "id",
          "type": "uint256",
          "indexed": false,
          "internalType": "uint256"
        },
        {
          "name": "description",
          "type": "string",
          "indexed": false,
          "internalType": "string"
        },
        {
          "name": "deadline",
          "type": "uint256",
          "indexed": false,
          "internalType": "uint256"
        }
      ],
      "anonymous": false
    },
    {
      "type": "event",
      "name": "ProposalExecuted",
      "inputs": [
        {
          "name": "id",
          "type": "uint256",
          "indexed": false,
          "internalType": "uint256"
        }
      ],
      "anonymous": false
    },
    {
      "type": "event",
      "name": "Voted",
      "inputs": [
        {
          "name": "proposalId",
          "type": "uint256",
          "indexed": false,
          "internalType": "uint256"
        },
        {
          "name": "voter",
          "type": "address",
          "indexed": false,
          "internalType": "address"
        },
        {
          "name": "support",
          "type": "bool",
          "indexed": false,
          "internalType": "bool"
        }
      ],
      "anonymous": false
    },
    {
      "type": "error",
      "name": "AquaDAO__AlreadyExecutedProposal",
      "inputs": []
    },
    {
      "type": "error",
      "name": "AquaDAO__AlreadyVoted",
      "inputs": []
    },
    {
      "type": "error",
      "name": "AquaDAO__NoRightsToVote",
      "inputs": []
    },
    {
      "type": "error",
      "name": "AquaDAO__NotProposalOwner",
      "inputs": []
    },
    {
      "type": "error",
      "name": "AquaDAO__ProposalDoesNotExist",
      "inputs": []
    },
    {
      "type": "error",
      "name": "AquaDAO__VotingPeriodHasEnded",
      "inputs": []
    }
  ],
  "bytecode": {
    "object": "0x608060405234801561000f575f5ffd5b5060405161265338038061265383398181016040528101906100319190610115565b8160015f6101000a81548173ffffffffffffffffffffffffffffffffffffffff021916908373ffffffffffffffffffffffffffffffffffffffff160217905550805f5f6101000a81548173ffffffffffffffffffffffffffffffffffffffff021916908373ffffffffffffffffffffffffffffffffffffffff1602179055505050610153565b5f5ffd5b5f73ffffffffffffffffffffffffffffffffffffffff82169050919050565b5f6100e4826100bb565b9050919050565b6100f4816100da565b81146100fe575f5ffd5b50565b5f8151905061010f816100eb565b92915050565b5f5f6040838503121561012b5761012a6100b7565b5b5f61013885828601610101565b925050602061014985828601610101565b9150509250929050565b6124f3806101605f395ff3fe608060405234801561000f575f5ffd5b50600436106100a7575f3560e01c80639724fc951161006f5780639724fc951461016a578063999fcae814610188578063b8106469146101a6578063c96c27c9146101d6578063c9d27afe146101f2578063fe6e2b841461020e576100a7565b8063013cf08b146100ab57806307a9f02d146100e257806334592a281461011257806335facf78146101305780635584c4f91461014c575b5f5ffd5b6100c560048036038101906100c09190611992565b61023e565b6040516100d9989796959493929190611a95565b60405180910390f35b6100fc60048036038101906100f79190611992565b610340565b6040516101099190611c3a565b60405180910390f35b61011a6104dd565b6040516101279190611dc2565b60405180910390f35b61014a60048036038101906101459190611e43565b6104ec565b005b610154610644565b6040516101619190611dc2565b60405180910390f35b610172610653565b60405161017f9190611ea0565b60405180910390f35b61019061065f565b60405161019d9190611dc2565b60405180910390f35b6101c060048036038101906101bb9190611ee3565b61066e565b6040516101cd9190611f21565b60405180910390f35b6101f060048036038101906101eb9190611992565b61071b565b005b61020c60048036038101906102079190611f64565b6108e3565b005b61022860048036038101906102239190611992565b610baa565b6040516102359190611f21565b60405180910390f35b6003602052805f5260405f205f91509050805f015490806001015f9054906101000a900473ffffffffffffffffffffffffffffffffffffffff169080600201805461028890611fcf565b80601f01602080910402602001604051908101604052809291908181526020018280546102b490611fcf565b80156102ff5780601f106102d6576101008083540402835291602001916102ff565b820191905f5260205f20905b8154815290600101906020018083116102e257829003601f168201915b505050505090806003015490806004015490806005015490806006015f9054906101000a900460ff16908060060160019054906101000a900460ff16905088565b6103486118ff565b8160025481118061035857505f81145b1561038f576040517f1aa4f49000000000000000000000000000000000000000000000000000000000815260040160405180910390fd5b5f60035f8581526020019081526020015f209050604051806101000160405280825f01548152602001826001015f9054906101000a900473ffffffffffffffffffffffffffffffffffffffff1673ffffffffffffffffffffffffffffffffffffffff16815260200182600201805461040690611fcf565b80601f016020809104026020016040519081016040528092919081815260200182805461043290611fcf565b801561047d5780601f106104545761010080835404028352916020019161047d565b820191905f5260205f20905b81548152906001019060200180831161046057829003601f168201915b50505050508152602001826003015481526020018260040154815260200182600501548152602001826006015f9054906101000a900460ff16151581526020018260060160019054906101000a900460ff16151581525092505050919050565b60606104e7610c1c565b905090565b60025f8154809291906104fe9061202c565b91905055505f60035f60025481526020019081526020015f209050600254815f018190555033816001015f6101000a81548173ffffffffffffffffffffffffffffffffffffffff021916908373ffffffffffffffffffffffffffffffffffffffff160217905550838382600201918261057892919061224a565b5062015180826105889190612317565b426105939190612358565b81600501819055505f816006015f6101000a81548160ff0219169083151502179055505f8160060160016101000a81548160ff0219169083151502179055506004815f0154908060018154018082558091505060019003905f5260205f20015f90919091909150557ff5dc0da9afa6d080780a49fd8c680f03d2ddf3c067cd6d0c85360c096644d2d36002548585846005015460405161063694939291906123c5565b60405180910390a150505050565b606061064e611017565b905090565b5f600480549050905090565b606061066961148a565b905090565b5f8260025481118061067f57505f81145b156106b6576040517f1aa4f49000000000000000000000000000000000000000000000000000000000815260040160405180910390fd5b60035f8581526020019081526020015f206007015f8473ffffffffffffffffffffffffffffffffffffffff1673ffffffffffffffffffffffffffffffffffffffff1681526020019081526020015f205f9054906101000a900460ff1691505092915050565b8060025481118061072b57505f81145b15610762576040517f1aa4f49000000000000000000000000000000000000000000000000000000000815260040160405180910390fd5b815f60035f8381526020019081526020015f206001015f9054906101000a900473ffffffffffffffffffffffffffffffffffffffff1690508073ffffffffffffffffffffffffffffffffffffffff163373ffffffffffffffffffffffffffffffffffffffff16146107ff576040517f5ba23e6a00000000000000000000000000000000000000000000000000000000815260040160405180910390fd5b5f60035f8681526020019081526020015f209050806006015f9054906101000a900460ff161561085b576040517fa23483ce00000000000000000000000000000000000000000000000000000000815260040160405180910390fd5b6001816006015f6101000a81548160ff0219169083151502179055508060040154816003015411156108a55760018160060160016101000a81548160ff0219169083151502179055505b7f712ae1383f79ac853f8d882153778e0260ef8f03b504e2866e0593e04d2b291f856040516108d49190611ea0565b60405180910390a15050505050565b816002548111806108f357505f81145b1561092a576040517f1aa4f49000000000000000000000000000000000000000000000000000000000815260040160405180910390fd5b5f60035f8581526020019081526020015f209050806005015442111561097c576040517fd43bf67a00000000000000000000000000000000000000000000000000000000815260040160405180910390fd5b806007015f3373ffffffffffffffffffffffffffffffffffffffff1673ffffffffffffffffffffffffffffffffffffffff1681526020019081526020015f205f9054906101000a900460ff16156109ff576040517fd8d8381d00000000000000000000000000000000000000000000000000000000815260040160405180910390fd5b5f5f5f9054906101000a900473ffffffffffffffffffffffffffffffffffffffff1673ffffffffffffffffffffffffffffffffffffffff166370a08231336040518263ffffffff1660e01b8152600401610a599190612403565b602060405180830381865afa158015610a74573d5f5f3e3d5ffd5b505050506040513d601f19601f82011682018060405250810190610a989190612430565b90506001811015610ad5576040517fdd02d7af00000000000000000000000000000000000000000000000000000000815260040160405180910390fd5b6001826007015f3373ffffffffffffffffffffffffffffffffffffffff1673ffffffffffffffffffffffffffffffffffffffff1681526020019081526020015f205f6101000a81548160ff0219169083151502179055508315610b4f57808260030154610b429190612358565b8260030181905550610b68565b808260040154610b5f9190612358565b82600401819055505b7ff2913dbe661ee2acc4a046d8fbcdc792373bda34c41c6086484b5345e5785e5f853386604051610b9b9392919061245b565b60405180910390a15050505050565b5f81600254811180610bbb57505f81145b15610bf2576040517f1aa4f49000000000000000000000000000000000000000000000000000000000815260040160405180910390fd5b60035f8481526020019081526020015f2060060160019054906101000a900460ff16915050919050565b60605f5f90505f5f90505b600480549050811015610c925760035f60048381548110610c4b57610c4a612490565b5b905f5260205f20015481526020019081526020015f206006015f9054906101000a900460ff1615610c85578180610c819061202c565b9250505b8080600101915050610c27565b505f8167ffffffffffffffff811115610cae57610cad61207d565b5b604051908082528060200260200182016040528015610ce757816020015b610cd46118ff565b815260200190600190039081610ccc5790505b5090505f5f90505f5f90505b60048054905081101561100d5760035f60048381548110610d1757610d16612490565b5b905f5260205f20015481526020019081526020015f206006015f9054906101000a900460ff16156110005760405180610100016040528060035f60048581548110610d6557610d64612490565b5b905f5260205f20015481526020019081526020015f205f0154815260200160035f60048581548110610d9a57610d99612490565b5b905f5260205f20015481526020019081526020015f206001015f9054906101000a900473ffffffffffffffffffffffffffffffffffffffff1673ffffffffffffffffffffffffffffffffffffffff16815260200160035f60048581548110610e0557610e04612490565b5b905f5260205f20015481526020019081526020015f206002018054610e2990611fcf565b80601f0160208091040260200160405190810160405280929190818152602001828054610e5590611fcf565b8015610ea05780601f10610e7757610100808354040283529160200191610ea0565b820191905f5260205f20905b815481529060010190602001808311610e8357829003601f168201915b5050505050815260200160035f60048581548110610ec157610ec0612490565b5b905f5260205f20015481526020019081526020015f2060030154815260200160035f60048581548110610ef757610ef6612490565b5b905f5260205f20015481526020019081526020015f2060040154815260200160035f60048581548110610f2d57610f2c612490565b5b905f5260205f20015481526020019081526020015f2060050154815260200160035f60048581548110610f6357610f62612490565b5b905f5260205f20015481526020019081526020015f206006015f9054906101000a900460ff161515815260200160035f60048581548110610fa757610fa6612490565b5b905f5260205f20015481526020019081526020015f2060060160019054906101000a900460ff161515815250838381518110610fe657610fe5612490565b5b60200260200101819052508180610ffc9061202c565b9250505b8080600101915050610cf3565b5081935050505090565b60605f5f90505f5f90505b6004805490508110156110c9574260035f6004848154811061104757611046612490565b5b905f5260205f20015481526020019081526020015f20600501541180156110a8575060035f600483815481106110805761107f612490565b5b905f5260205f20015481526020019081526020015f206006015f9054906101000a900460ff16155b156110bc5781806110b89061202c565b9250505b8080600101915050611022565b505f8167ffffffffffffffff8111156110e5576110e461207d565b5b60405190808252806020026020018201604052801561111e57816020015b61110b6118ff565b8152602001906001900390816111035790505b5090505f5f90505f5f90505b600480549050811015611480574260035f6004848154811061114f5761114e612490565b5b905f5260205f20015481526020019081526020015f20600501541180156111b0575060035f6004838154811061118857611187612490565b5b905f5260205f20015481526020019081526020015f206006015f9054906101000a900460ff16155b156114735760405180610100016040528060035f600485815481106111d8576111d7612490565b5b905f5260205f20015481526020019081526020015f205f0154815260200160035f6004858154811061120d5761120c612490565b5b905f5260205f20015481526020019081526020015f206001015f9054906101000a900473ffffffffffffffffffffffffffffffffffffffff1673ffffffffffffffffffffffffffffffffffffffff16815260200160035f6004858154811061127857611277612490565b5b905f5260205f20015481526020019081526020015f20600201805461129c90611fcf565b80601f01602080910402602001604051908101604052809291908181526020018280546112c890611fcf565b80156113135780601f106112ea57610100808354040283529160200191611313565b820191905f5260205f20905b8154815290600101906020018083116112f657829003601f168201915b5050505050815260200160035f6004858154811061133457611333612490565b5b905f5260205f20015481526020019081526020015f2060030154815260200160035f6004858154811061136a57611369612490565b5b905f5260205f20015481526020019081526020015f2060040154815260200160035f600485815481106113a05761139f612490565b5b905f5260205f20015481526020019081526020015f2060050154815260200160035f600485815481106113d6576113d5612490565b5b905f5260205f20015481526020019081526020015f206006015f9054906101000a900460ff161515815260200160035f6004858154811061141a57611419612490565b5b905f5260205f20015481526020019081526020015f2060060160019054906101000a900460ff16151581525083838151811061145957611458612490565b5b6020026020010181905250818061146f9061202c565b9250505b808060010191505061112a565b5081935050505090565b60605f5f90505f5f90505b60048054905081101561153d574260035f600484815481106114ba576114b9612490565b5b905f5260205f20015481526020019081526020015f20600501541115801561151c575060035f600483815481106114f4576114f3612490565b5b905f5260205f20015481526020019081526020015f206006015f9054906101000a900460ff16155b1561153057818061152c9061202c565b9250505b8080600101915050611495565b505f8167ffffffffffffffff8111156115595761155861207d565b5b60405190808252806020026020018201604052801561159257816020015b61157f6118ff565b8152602001906001900390816115775790505b5090505f5f90505f5f90505b6004805490508110156118f5574260035f600484815481106115c3576115c2612490565b5b905f5260205f20015481526020019081526020015f206005015411158015611625575060035f600483815481106115fd576115fc612490565b5b905f5260205f20015481526020019081526020015f206006015f9054906101000a900460ff16155b156118e85760405180610100016040528060035f6004858154811061164d5761164c612490565b5b905f5260205f20015481526020019081526020015f205f0154815260200160035f6004858154811061168257611681612490565b5b905f5260205f20015481526020019081526020015f206001015f9054906101000a900473ffffffffffffffffffffffffffffffffffffffff1673ffffffffffffffffffffffffffffffffffffffff16815260200160035f600485815481106116ed576116ec612490565b5b905f5260205f20015481526020019081526020015f20600201805461171190611fcf565b80601f016020809104026020016040519081016040528092919081815260200182805461173d90611fcf565b80156117885780601f1061175f57610100808354040283529160200191611788565b820191905f5260205f20905b81548152906001019060200180831161176b57829003601f168201915b5050505050815260200160035f600485815481106117a9576117a8612490565b5b905f5260205f20015481526020019081526020015f2060030154815260200160035f600485815481106117df576117de612490565b5b905f5260205f20015481526020019081526020015f2060040154815260200160035f6004858154811061181557611814612490565b5b905f5260205f20015481526020019081526020015f2060050154815260200160035f6004858154811061184b5761184a612490565b5b905f5260205f20015481526020019081526020015f206006015f9054906101000a900460ff161515815260200160035f6004858154811061188f5761188e612490565b5b905f5260205f20015481526020019081526020015f2060060160019054906101000a900460ff1615158152508383815181106118ce576118cd612490565b5b602002602001018190525081806118e49061202c565b9250505b808060010191505061159e565b5081935050505090565b6040518061010001604052805f81526020015f73ffffffffffffffffffffffffffffffffffffffff168152602001606081526020015f81526020015f81526020015f81526020015f151581526020015f151581525090565b5f5ffd5b5f5ffd5b5f819050919050565b6119718161195f565b811461197b575f5ffd5b50565b5f8135905061198c81611968565b92915050565b5f602082840312156119a7576119a6611957565b5b5f6119b48482850161197e565b91505092915050565b6119c68161195f565b82525050565b5f73ffffffffffffffffffffffffffffffffffffffff82169050919050565b5f6119f5826119cc565b9050919050565b611a05816119eb565b82525050565b5f81519050919050565b5f82825260208201905092915050565b8281835e5f83830152505050565b5f601f19601f8301169050919050565b5f611a4d82611a0b565b611a578185611a15565b9350611a67818560208601611a25565b611a7081611a33565b840191505092915050565b5f8115159050919050565b611a8f81611a7b565b82525050565b5f61010082019050611aa95f83018b6119bd565b611ab6602083018a6119fc565b8181036040830152611ac88189611a43565b9050611ad760608301886119bd565b611ae460808301876119bd565b611af160a08301866119bd565b611afe60c0830185611a86565b611b0b60e0830184611a86565b9998505050505050505050565b611b218161195f565b82525050565b611b30816119eb565b82525050565b5f82825260208201905092915050565b5f611b5082611a0b565b611b5a8185611b36565b9350611b6a818560208601611a25565b611b7381611a33565b840191505092915050565b611b8781611a7b565b82525050565b5f61010083015f830151611ba35f860182611b18565b506020830151611bb66020860182611b27565b5060408301518482036040860152611bce8282611b46565b9150506060830151611be36060860182611b18565b506080830151611bf66080860182611b18565b5060a0830151611c0960a0860182611b18565b5060c0830151611c1c60c0860182611b7e565b5060e0830151611c2f60e0860182611b7e565b508091505092915050565b5f6020820190508181035f830152611c528184611b8d565b905092915050565b5f81519050919050565b5f82825260208201905092915050565b5f819050602082019050919050565b5f61010083015f830151611c995f860182611b18565b506020830151611cac6020860182611b27565b5060408301518482036040860152611cc48282611b46565b9150506060830151611cd96060860182611b18565b506080830151611cec6080860182611b18565b5060a0830151611cff60a0860182611b18565b5060c0830151611d1260c0860182611b7e565b5060e0830151611d2560e0860182611b7e565b508091505092915050565b5f611d3b8383611c83565b905092915050565b5f602082019050919050565b5f611d5982611c5a565b611d638185611c64565b935083602082028501611d7585611c74565b805f5b85811015611db05784840389528151611d918582611d30565b9450611d9c83611d43565b925060208a01995050600181019050611d78565b50829750879550505050505092915050565b5f6020820190508181035f830152611dda8184611d4f565b905092915050565b5f5ffd5b5f5ffd5b5f5ffd5b5f5f83601f840112611e0357611e02611de2565b5b8235905067ffffffffffffffff811115611e2057611e1f611de6565b5b602083019150836001820283011115611e3c57611e3b611dea565b5b9250929050565b5f5f5f60408486031215611e5a57611e59611957565b5b5f84013567ffffffffffffffff811115611e7757611e7661195b565b5b611e8386828701611dee565b93509350506020611e968682870161197e565b9150509250925092565b5f602082019050611eb35f8301846119bd565b92915050565b611ec2816119eb565b8114611ecc575f5ffd5b50565b5f81359050611edd81611eb9565b92915050565b5f5f60408385031215611ef957611ef8611957565b5b5f611f068582860161197e565b9250506020611f1785828601611ecf565b9150509250929050565b5f602082019050611f345f830184611a86565b92915050565b611f4381611a7b565b8114611f4d575f5ffd5b50565b5f81359050611f5e81611f3a565b92915050565b5f5f60408385031215611f7a57611f79611957565b5b5f611f878582860161197e565b9250506020611f9885828601611f50565b9150509250929050565b7f4e487b71000000000000000000000000000000000000000000000000000000005f52602260045260245ffd5b5f6002820490506001821680611fe657607f821691505b602082108103611ff957611ff8611fa2565b5b50919050565b7f4e487b71000000000000000000000000000000000000000000000000000000005f52601160045260245ffd5b5f6120368261195f565b91507fffffffffffffffffffffffffffffffffffffffffffffffffffffffffffffffff820361206857612067611fff565b5b600182019050919050565b5f82905092915050565b7f4e487b71000000000000000000000000000000000000000000000000000000005f52604160045260245ffd5b5f819050815f5260205f209050919050565b5f6020601f8301049050919050565b5f82821b905092915050565b5f600883026121067fffffffffffffffffffffffffffffffffffffffffffffffffffffffffffffffff826120cb565b61211086836120cb565b95508019841693508086168417925050509392505050565b5f819050919050565b5f61214b6121466121418461195f565b612128565b61195f565b9050919050565b5f819050919050565b61216483612131565b61217861217082612152565b8484546120d7565b825550505050565b5f5f905090565b61218f612180565b61219a81848461215b565b505050565b5b818110156121bd576121b25f82612187565b6001810190506121a0565b5050565b601f821115612202576121d3816120aa565b6121dc846120bc565b810160208510156121eb578190505b6121ff6121f7856120bc565b83018261219f565b50505b505050565b5f82821c905092915050565b5f6122225f1984600802612207565b1980831691505092915050565b5f61223a8383612213565b9150826002028217905092915050565b6122548383612073565b67ffffffffffffffff81111561226d5761226c61207d565b5b6122778254611fcf565b6122828282856121c1565b5f601f8311600181146122af575f841561229d578287013590505b6122a7858261222f565b86555061230e565b601f1984166122bd866120aa565b5f5b828110156122e4578489013582556001820191506020850194506020810190506122bf565b8683101561230157848901356122fd601f891682612213565b8355505b6001600288020188555050505b50505050505050565b5f6123218261195f565b915061232c8361195f565b925082820261233a8161195f565b9150828204841483151761235157612350611fff565b5b5092915050565b5f6123628261195f565b915061236d8361195f565b925082820190508082111561238557612384611fff565b5b92915050565b828183375f83830152505050565b5f6123a48385611a15565b93506123b183858461238b565b6123ba83611a33565b840190509392505050565b5f6060820190506123d85f8301876119bd565b81810360208301526123eb818587612399565b90506123fa60408301846119bd565b95945050505050565b5f6020820190506124165f8301846119fc565b92915050565b5f8151905061242a81611968565b92915050565b5f6020828403121561244557612444611957565b5b5f6124528482850161241c565b91505092915050565b5f60608201905061246e5f8301866119bd565b61247b60208301856119fc565b6124886040830184611a86565b949350505050565b7f4e487b71000000000000000000000000000000000000000000000000000000005f52603260045260245ffdfea2646970667358221220d3d07d823f3ff3b7b31a338f2ff82430c7341e014837b3a1f24e113a1f557ed964736f6c634300081e0033",
    "linkReferences": {}
  },
  "methodIdentifiers": {
    "createProposal(string,uint256)": "35facf78",
    "executeTheProposal(uint256)": "c96c27c9",
    "getActiveProposals()": "5584c4f9",
    "getExecutedProposals()": "34592a28",
    "getFailedProposals()": "999fcae8",
    "getIsHasVoted(uint256,address)": "b8106469",
    "getIsProposalHasPassed(uint256)": "fe6e2b84",
    "getProposalDetail(uint256)": "07a9f02d",
    "getTotalProposalsCount()": "9724fc95",
    "proposals(uint256)": "013cf08b",
    "vote(uint256,bool)": "c9d27afe"
  },
  "id": 27
}