{
  "abi": [
    {
      "type": "constructor",
      "inputs": [
        {
          "name": "_treasury",
          "type": "address",
          "internalType": "address"
        },
        {
          "name": "_governanceToken",
          "type": "address",
          "internalType": "address"
        }
      ],
      "stateMutability": "nonpayable"
    },
    {
      "type": "function",
      "name": "createProposal",
      "inputs": [
        {
          "name": "_description",
          "type": "string",
          "internalType": "string"
        },
        {
          "name": "_duration",
          "type": "uint256",
          "internalType": "uint256"
        }
      ],
      "outputs": [],
      "stateMutability": "nonpayable"
    },
    {
      "type": "function",
      "name": "executeTheProposal",
      "inputs": [
        {
          "name": "_proposalId",
          "type": "uint256",
          "internalType": "uint256"
        }
      ],
      "outputs": [],
      "stateMutability": "nonpayable"
    },
    {
      "type": "function",
      "name": "getActiveProposals",
      "inputs": [],
      "outputs": [
        {
          "name": "",
          "type": "tuple[]",
          "internalType": "struct AquaDAO.ProposalForDisplay[]",
          "components": [
            {
              "name": "id",
              "type": "uint256",
              "internalType": "uint256"
            },
            {
              "name": "proposer",
              "type": "address",
              "internalType": "address"
            },
            {
              "name": "description",
              "type": "string",
              "internalType": "string"
            },
            {
              "name": "votesFor",
              "type": "uint256",
              "internalType": "uint256"
            },
            {
              "name": "votesAgainst",
              "type": "uint256",
              "internalType": "uint256"
            },
            {
              "name": "deadline",
              "type": "uint256",
              "internalType": "uint256"
            },
            {
              "name": "executed",
              "type": "bool",
              "internalType": "bool"
            },
            {
              "name": "isProposalHasPassed",
              "type": "bool",
              "internalType": "bool"
            }
          ]
        }
      ],
      "stateMutability": "view"
    },
    {
      "type": "function",
      "name": "getExecutedProposals",
      "inputs": [],
      "outputs": [
        {
          "name": "",
          "type": "tuple[]",
          "internalType": "struct AquaDAO.ProposalForDisplay[]",
          "components": [
            {
              "name": "id",
              "type": "uint256",
              "internalType": "uint256"
            },
            {
              "name": "proposer",
              "type": "address",
              "internalType": "address"
            },
            {
              "name": "description",
              "type": "string",
              "internalType": "string"
            },
            {
              "name": "votesFor",
              "type": "uint256",
              "internalType": "uint256"
            },
            {
              "name": "votesAgainst",
              "type": "uint256",
              "internalType": "uint256"
            },
            {
              "name": "deadline",
              "type": "uint256",
              "internalType": "uint256"
            },
            {
              "name": "executed",
              "type": "bool",
              "internalType": "bool"
            },
            {
              "name": "isProposalHasPassed",
              "type": "bool",
              "internalType": "bool"
            }
          ]
        }
      ],
      "stateMutability": "view"
    },
    {
      "type": "function",
      "name": "getFailedProposals",
      "inputs": [],
      "outputs": [
        {
          "name": "",
          "type": "tuple[]",
          "internalType": "struct AquaDAO.ProposalForDisplay[]",
          "components": [
            {
              "name": "id",
              "type": "uint256",
              "internalType": "uint256"
            },
            {
              "name": "proposer",
              "type": "address",
              "internalType": "address"
            },
            {
              "name": "description",
              "type": "string",
              "internalType": "string"
            },
            {
              "name": "votesFor",
              "type": "uint256",
              "internalType": "uint256"
            },
            {
              "name": "votesAgainst",
              "type": "uint256",
              "internalType": "uint256"
            },
            {
              "name": "deadline",
              "type": "uint256",
              "internalType": "uint256"
            },
            {
              "name": "executed",
              "type": "bool",
              "internalType": "bool"
            },
            {
              "name": "isProposalHasPassed",
              "type": "bool",
              "internalType": "bool"
            }
          ]
        }
      ],
      "stateMutability": "view"
    },
    {
      "type": "function",
      "name": "getIsHasVoted",
      "inputs": [
        {
          "name": "_proposalId",
          "type": "uint256",
          "internalType": "uint256"
        },
        {
          "name": "_voter",
          "type": "address",
          "internalType": "address"
        }
      ],
      "outputs": [
        {
          "name": "",
          "type": "bool",
          "internalType": "bool"
        }
      ],
      "stateMutability": "view"
    },
    {
      "type": "function",
      "name": "getIsProposalHasPassed",
      "inputs": [
        {
          "name": "_proposalId",
          "type": "uint256",
          "internalType": "uint256"
        }
      ],
      "outputs": [
        {
          "name": "",
          "type": "bool",
          "internalType": "bool"
        }
      ],
      "stateMutability": "view"
    },
    {
      "type": "function",
      "name": "getProposalDetail",
      "inputs": [
        {
          "name": "_proposalId",
          "type": "uint256",
          "internalType": "uint256"
        }
      ],
      "outputs": [
        {
          "name": "",
          "type": "tuple",
          "internalType": "struct AquaDAO.ProposalForDisplay",
          "components": [
            {
              "name": "id",
              "type": "uint256",
              "internalType": "uint256"
            },
            {
              "name": "proposer",
              "type": "address",
              "internalType": "address"
            },
            {
              "name": "description",
              "type": "string",
              "internalType": "string"
            },
            {
              "name": "votesFor",
              "type": "uint256",
              "internalType": "uint256"
            },
            {
              "name": "votesAgainst",
              "type": "uint256",
              "internalType": "uint256"
            },
            {
              "name": "deadline",
              "type": "uint256",
              "internalType": "uint256"
            },
            {
              "name": "executed",
              "type": "bool",
              "internalType": "bool"
            },
            {
              "name": "isProposalHasPassed",
              "type": "bool",
              "internalType": "bool"
            }
          ]
        }
      ],
      "stateMutability": "view"
    },
    {
      "type": "function",
      "name": "getTotalProposalsCount",
      "inputs": [],
      "outputs": [
        {
          "name": "",
          "type": "uint256",
          "internalType": "uint256"
        }
      ],
      "stateMutability": "view"
    },
    {
      "type": "function",
      "name": "getUserProposals",
      "inputs": [
        {
          "name": "_user",
          "type": "address",
          "internalType": "address"
        }
      ],
      "outputs": [
        {
          "name": "",
          "type": "tuple[]",
          "internalType": "struct AquaDAO.ProposalForDisplay[]",
          "components": [
            {
              "name": "id",
              "type": "uint256",
              "internalType": "uint256"
            },
            {
              "name": "proposer",
              "type": "address",
              "internalType": "address"
            },
            {
              "name": "description",
              "type": "string",
              "internalType": "string"
            },
            {
              "name": "votesFor",
              "type": "uint256",
              "internalType": "uint256"
            },
            {
              "name": "votesAgainst",
              "type": "uint256",
              "internalType": "uint256"
            },
            {
              "name": "deadline",
              "type": "uint256",
              "internalType": "uint256"
            },
            {
              "name": "executed",
              "type": "bool",
              "internalType": "bool"
            },
            {
              "name": "isProposalHasPassed",
              "type": "bool",
              "internalType": "bool"
            }
          ]
        }
      ],
      "stateMutability": "view"
    },
    {
      "type": "function",
      "name": "proposals",
      "inputs": [
        {
          "name": "",
          "type": "uint256",
          "internalType": "uint256"
        }
      ],
      "outputs": [
        {
          "name": "id",
          "type": "uint256",
          "internalType": "uint256"
        },
        {
          "name": "proposer",
          "type": "address",
          "internalType": "address"
        },
        {
          "name": "description",
          "type": "string",
          "internalType": "string"
        },
        {
          "name": "votesFor",
          "type": "uint256",
          "internalType": "uint256"
        },
        {
          "name": "votesAgainst",
          "type": "uint256",
          "internalType": "uint256"
        },
        {
          "name": "deadline",
          "type": "uint256",
          "internalType": "uint256"
        },
        {
          "name": "executed",
          "type": "bool",
          "internalType": "bool"
        },
        {
          "name": "isProposalHasPassed",
          "type": "bool",
          "internalType": "bool"
        }
      ],
      "stateMutability": "view"
    },
    {
      "type": "function",
      "name": "vote",
      "inputs": [
        {
          "name": "_proposalId",
          "type": "uint256",
          "internalType": "uint256"
        },
        {
          "name": "_support",
          "type": "bool",
          "internalType": "bool"
        }
      ],
      "outputs": [],
      "stateMutability": "nonpayable"
    },
    {
      "type": "event",
      "name": "ProposalCreated",
      "inputs": [
        {
          "name": "id",
          "type": "uint256",
          "indexed": false,
          "internalType": "uint256"
        },
        {
          "name": "description",
          "type": "string",
          "indexed": false,
          "internalType": "string"
        },
        {
          "name": "deadline",
          "type": "uint256",
          "indexed": false,
          "internalType": "uint256"
        }
      ],
      "anonymous": false
    },
    {
      "type": "event",
      "name": "ProposalExecuted",
      "inputs": [
        {
          "name": "id",
          "type": "uint256",
          "indexed": false,
          "internalType": "uint256"
        }
      ],
      "anonymous": false
    },
    {
      "type": "event",
      "name": "Voted",
      "inputs": [
        {
          "name": "proposalId",
          "type": "uint256",
          "indexed": false,
          "internalType": "uint256"
        },
        {
          "name": "voter",
          "type": "address",
          "indexed": false,
          "internalType": "address"
        },
        {
          "name": "support",
          "type": "bool",
          "indexed": false,
          "internalType": "bool"
        }
      ],
      "anonymous": false
    },
    {
      "type": "error",
      "name": "AquaDAO__AlreadyExecutedProposal",
      "inputs": []
    },
    {
      "type": "error",
      "name": "AquaDAO__AlreadyVoted",
      "inputs": []
    },
    {
      "type": "error",
      "name": "AquaDAO__NoRightsToVote",
      "inputs": []
    },
    {
      "type": "error",
      "name": "AquaDAO__NotProposalOwner",
      "inputs": []
    },
    {
      "type": "error",
      "name": "AquaDAO__ProposalDoesNotExist",
      "inputs": []
    },
    {
      "type": "error",
      "name": "AquaDAO__VotingPeriodHasEnded",
      "inputs": []
    }
  ],
  "bytecode": {
    "object": "0x608060405234801561000f575f5ffd5b50604051612b36380380612b3683398181016040528101906100319190610115565b8160015f6101000a81548173ffffffffffffffffffffffffffffffffffffffff021916908373ffffffffffffffffffffffffffffffffffffffff160217905550805f5f6101000a81548173ffffffffffffffffffffffffffffffffffffffff021916908373ffffffffffffffffffffffffffffffffffffffff1602179055505050610153565b5f5ffd5b5f73ffffffffffffffffffffffffffffffffffffffff82169050919050565b5f6100e4826100bb565b9050919050565b6100f4816100da565b81146100fe575f5ffd5b50565b5f8151905061010f816100eb565b92915050565b5f5f6040838503121561012b5761012a6100b7565b5b5f61013885828601610101565b925050602061014985828601610101565b9150509250929050565b6129d6806101605f395ff3fe608060405234801561000f575f5ffd5b50600436106100b2575f3560e01c80639724fc951161006f5780639724fc95146101a5578063999fcae8146101c3578063b8106469146101e1578063c96c27c914610211578063c9d27afe1461022d578063fe6e2b8414610249576100b2565b8063013cf08b146100b657806307a9f02d146100ed57806334592a281461011d57806335facf781461013b5780635584c4f91461015757806378ef113814610175575b5f5ffd5b6100d060048036038101906100cb9190611e4a565b610279565b6040516100e4989796959493929190611f4d565b60405180910390f35b61010760048036038101906101029190611e4a565b61037b565b60405161011491906120f2565b60405180910390f35b610125610518565b604051610132919061227a565b60405180910390f35b610155600480360381019061015091906122fb565b610527565b005b61015f61067f565b60405161016c919061227a565b60405180910390f35b61018f600480360381019061018a9190612382565b61068e565b60405161019c919061227a565b60405180910390f35b6101ad610b0b565b6040516101ba91906123ad565b60405180910390f35b6101cb610b17565b6040516101d8919061227a565b60405180910390f35b6101fb60048036038101906101f691906123c6565b610b26565b6040516102089190612404565b60405180910390f35b61022b60048036038101906102269190611e4a565b610bd3565b005b61024760048036038101906102429190612447565b610d9b565b005b610263600480360381019061025e9190611e4a565b611062565b6040516102709190612404565b60405180910390f35b6003602052805f5260405f205f91509050805f015490806001015f9054906101000a900473ffffffffffffffffffffffffffffffffffffffff16908060020180546102c3906124b2565b80601f01602080910402602001604051908101604052809291908181526020018280546102ef906124b2565b801561033a5780601f106103115761010080835404028352916020019161033a565b820191905f5260205f20905b81548152906001019060200180831161031d57829003601f168201915b505050505090806003015490806004015490806005015490806006015f9054906101000a900460ff16908060060160019054906101000a900460ff16905088565b610383611db7565b8160025481118061039357505f81145b156103ca576040517f1aa4f49000000000000000000000000000000000000000000000000000000000815260040160405180910390fd5b5f60035f8581526020019081526020015f209050604051806101000160405280825f01548152602001826001015f9054906101000a900473ffffffffffffffffffffffffffffffffffffffff1673ffffffffffffffffffffffffffffffffffffffff168152602001826002018054610441906124b2565b80601f016020809104026020016040519081016040528092919081815260200182805461046d906124b2565b80156104b85780601f1061048f576101008083540402835291602001916104b8565b820191905f5260205f20905b81548152906001019060200180831161049b57829003601f168201915b50505050508152602001826003015481526020018260040154815260200182600501548152602001826006015f9054906101000a900460ff16151581526020018260060160019054906101000a900460ff16151581525092505050919050565b60606105226110d4565b905090565b60025f8154809291906105399061250f565b91905055505f60035f60025481526020019081526020015f209050600254815f018190555033816001015f6101000a81548173ffffffffffffffffffffffffffffffffffffffff021916908373ffffffffffffffffffffffffffffffffffffffff16021790555083838260020191826105b392919061272d565b5062015180826105c391906127fa565b426105ce919061283b565b81600501819055505f816006015f6101000a81548160ff0219169083151502179055505f8160060160016101000a81548160ff0219169083151502179055506004815f0154908060018154018082558091505060019003905f5260205f20015f90919091909150557ff5dc0da9afa6d080780a49fd8c680f03d2ddf3c067cd6d0c85360c096644d2d36002548585846005015460405161067194939291906128a8565b60405180910390a150505050565b60606106896114cf565b905090565b60605f5f90505f5f90505b600480549050811015610744578373ffffffffffffffffffffffffffffffffffffffff1660035f600484815481106106d4576106d36128e6565b5b905f5260205f20015481526020019081526020015f206001015f9054906101000a900473ffffffffffffffffffffffffffffffffffffffff1673ffffffffffffffffffffffffffffffffffffffff16036107375781806107339061250f565b9250505b8080600101915050610699565b505f8167ffffffffffffffff8111156107605761075f612560565b5b60405190808252806020026020018201604052801561079957816020015b610786611db7565b81526020019060019003908161077e5790505b5090505f5f90505f5f90505b600480549050811015610aff578573ffffffffffffffffffffffffffffffffffffffff1660035f600484815481106107e0576107df6128e6565b5b905f5260205f20015481526020019081526020015f206001015f9054906101000a900473ffffffffffffffffffffffffffffffffffffffff1673ffffffffffffffffffffffffffffffffffffffff1603610af25760405180610100016040528060035f60048581548110610857576108566128e6565b5b905f5260205f20015481526020019081526020015f205f0154815260200160035f6004858154811061088c5761088b6128e6565b5b905f5260205f20015481526020019081526020015f206001015f9054906101000a900473ffffffffffffffffffffffffffffffffffffffff1673ffffffffffffffffffffffffffffffffffffffff16815260200160035f600485815481106108f7576108f66128e6565b5b905f5260205f20015481526020019081526020015f20600201805461091b906124b2565b80601f0160208091040260200160405190810160405280929190818152602001828054610947906124b2565b80156109925780601f1061096957610100808354040283529160200191610992565b820191905f5260205f20905b81548152906001019060200180831161097557829003601f168201915b5050505050815260200160035f600485815481106109b3576109b26128e6565b5b905f5260205f20015481526020019081526020015f2060030154815260200160035f600485815481106109e9576109e86128e6565b5b905f5260205f20015481526020019081526020015f2060040154815260200160035f60048581548110610a1f57610a1e6128e6565b5b905f5260205f20015481526020019081526020015f2060050154815260200160035f60048581548110610a5557610a546128e6565b5b905f5260205f20015481526020019081526020015f206006015f9054906101000a900460ff161515815260200160035f60048581548110610a9957610a986128e6565b5b905f5260205f20015481526020019081526020015f2060060160019054906101000a900460ff161515815250838381518110610ad857610ad76128e6565b5b60200260200101819052508180610aee9061250f565b9250505b80806001019150506107a5565b50819350505050919050565b5f600480549050905090565b6060610b21611942565b905090565b5f82600254811180610b3757505f81145b15610b6e576040517f1aa4f49000000000000000000000000000000000000000000000000000000000815260040160405180910390fd5b60035f8581526020019081526020015f206007015f8473ffffffffffffffffffffffffffffffffffffffff1673ffffffffffffffffffffffffffffffffffffffff1681526020019081526020015f205f9054906101000a900460ff1691505092915050565b80600254811180610be357505f81145b15610c1a576040517f1aa4f49000000000000000000000000000000000000000000000000000000000815260040160405180910390fd5b815f60035f8381526020019081526020015f206001015f9054906101000a900473ffffffffffffffffffffffffffffffffffffffff1690508073ffffffffffffffffffffffffffffffffffffffff163373ffffffffffffffffffffffffffffffffffffffff1614610cb7576040517f5ba23e6a00000000000000000000000000000000000000000000000000000000815260040160405180910390fd5b5f60035f8681526020019081526020015f209050806006015f9054906101000a900460ff1615610d13576040517fa23483ce00000000000000000000000000000000000000000000000000000000815260040160405180910390fd5b6001816006015f6101000a81548160ff021916908315150217905550806004015481600301541115610d5d5760018160060160016101000a81548160ff0219169083151502179055505b7f712ae1383f79ac853f8d882153778e0260ef8f03b504e2866e0593e04d2b291f85604051610d8c91906123ad565b60405180910390a15050505050565b81600254811180610dab57505f81145b15610de2576040517f1aa4f49000000000000000000000000000000000000000000000000000000000815260040160405180910390fd5b5f60035f8581526020019081526020015f2090508060050154421115610e34576040517fd43bf67a00000000000000000000000000000000000000000000000000000000815260040160405180910390fd5b806007015f3373ffffffffffffffffffffffffffffffffffffffff1673ffffffffffffffffffffffffffffffffffffffff1681526020019081526020015f205f9054906101000a900460ff1615610eb7576040517fd8d8381d00000000000000000000000000000000000000000000000000000000815260040160405180910390fd5b5f5f5f9054906101000a900473ffffffffffffffffffffffffffffffffffffffff1673ffffffffffffffffffffffffffffffffffffffff166370a08231336040518263ffffffff1660e01b8152600401610f119190612913565b602060405180830381865afa158015610f2c573d5f5f3e3d5ffd5b505050506040513d601f19601f82011682018060405250810190610f509190612940565b90506001811015610f8d576040517fdd02d7af00000000000000000000000000000000000000000000000000000000815260040160405180910390fd5b6001826007015f3373ffffffffffffffffffffffffffffffffffffffff1673ffffffffffffffffffffffffffffffffffffffff1681526020019081526020015f205f6101000a81548160ff021916908315150217905550831561100757808260030154610ffa919061283b565b8260030181905550611020565b808260040154611017919061283b565b82600401819055505b7ff2913dbe661ee2acc4a046d8fbcdc792373bda34c41c6086484b5345e5785e5f8533866040516110539392919061296b565b60405180910390a15050505050565b5f8160025481118061107357505f81145b156110aa576040517f1aa4f49000000000000000000000000000000000000000000000000000000000815260040160405180910390fd5b60035f8481526020019081526020015f2060060160019054906101000a900460ff16915050919050565b60605f5f90505f5f90505b60048054905081101561114a5760035f60048381548110611103576111026128e6565b5b905f5260205f20015481526020019081526020015f206006015f9054906101000a900460ff161561113d5781806111399061250f565b9250505b80806001019150506110df565b505f8167ffffffffffffffff81111561116657611165612560565b5b60405190808252806020026020018201604052801561119f57816020015b61118c611db7565b8152602001906001900390816111845790505b5090505f5f90505f5f90505b6004805490508110156114c55760035f600483815481106111cf576111ce6128e6565b5b905f5260205f20015481526020019081526020015f206006015f9054906101000a900460ff16156114b85760405180610100016040528060035f6004858154811061121d5761121c6128e6565b5b905f5260205f20015481526020019081526020015f205f0154815260200160035f60048581548110611252576112516128e6565b5b905f5260205f20015481526020019081526020015f206001015f9054906101000a900473ffffffffffffffffffffffffffffffffffffffff1673ffffffffffffffffffffffffffffffffffffffff16815260200160035f600485815481106112bd576112bc6128e6565b5b905f5260205f20015481526020019081526020015f2060020180546112e1906124b2565b80601f016020809104026020016040519081016040528092919081815260200182805461130d906124b2565b80156113585780601f1061132f57610100808354040283529160200191611358565b820191905f5260205f20905b81548152906001019060200180831161133b57829003601f168201915b5050505050815260200160035f60048581548110611379576113786128e6565b5b905f5260205f20015481526020019081526020015f2060030154815260200160035f600485815481106113af576113ae6128e6565b5b905f5260205f20015481526020019081526020015f2060040154815260200160035f600485815481106113e5576113e46128e6565b5b905f5260205f20015481526020019081526020015f2060050154815260200160035f6004858154811061141b5761141a6128e6565b5b905f5260205f20015481526020019081526020015f206006015f9054906101000a900460ff161515815260200160035f6004858154811061145f5761145e6128e6565b5b905f5260205f20015481526020019081526020015f2060060160019054906101000a900460ff16151581525083838151811061149e5761149d6128e6565b5b602002602001018190525081806114b49061250f565b9250505b80806001019150506111ab565b5081935050505090565b60605f5f90505f5f90505b600480549050811015611581574260035f600484815481106114ff576114fe6128e6565b5b905f5260205f20015481526020019081526020015f2060050154118015611560575060035f60048381548110611538576115376128e6565b5b905f5260205f20015481526020019081526020015f206006015f9054906101000a900460ff16155b156115745781806115709061250f565b9250505b80806001019150506114da565b505f8167ffffffffffffffff81111561159d5761159c612560565b5b6040519080825280602002602001820160405280156115d657816020015b6115c3611db7565b8152602001906001900390816115bb5790505b5090505f5f90505f5f90505b600480549050811015611938574260035f60048481548110611607576116066128e6565b5b905f5260205f20015481526020019081526020015f2060050154118015611668575060035f600483815481106116405761163f6128e6565b5b905f5260205f20015481526020019081526020015f206006015f9054906101000a900460ff16155b1561192b5760405180610100016040528060035f600485815481106116905761168f6128e6565b5b905f5260205f20015481526020019081526020015f205f0154815260200160035f600485815481106116c5576116c46128e6565b5b905f5260205f20015481526020019081526020015f206001015f9054906101000a900473ffffffffffffffffffffffffffffffffffffffff1673ffffffffffffffffffffffffffffffffffffffff16815260200160035f600485815481106117305761172f6128e6565b5b905f5260205f20015481526020019081526020015f206002018054611754906124b2565b80601f0160208091040260200160405190810160405280929190818152602001828054611780906124b2565b80156117cb5780601f106117a2576101008083540402835291602001916117cb565b820191905f5260205f20905b8154815290600101906020018083116117ae57829003601f168201915b5050505050815260200160035f600485815481106117ec576117eb6128e6565b5b905f5260205f20015481526020019081526020015f2060030154815260200160035f60048581548110611822576118216128e6565b5b905f5260205f20015481526020019081526020015f2060040154815260200160035f60048581548110611858576118576128e6565b5b905f5260205f20015481526020019081526020015f2060050154815260200160035f6004858154811061188e5761188d6128e6565b5b905f5260205f20015481526020019081526020015f206006015f9054906101000a900460ff161515815260200160035f600485815481106118d2576118d16128e6565b5b905f5260205f20015481526020019081526020015f2060060160019054906101000a900460ff161515815250838381518110611911576119106128e6565b5b602002602001018190525081806119279061250f565b9250505b80806001019150506115e2565b5081935050505090565b60605f5f90505f5f90505b6004805490508110156119f5574260035f60048481548110611972576119716128e6565b5b905f5260205f20015481526020019081526020015f2060050154111580156119d4575060035f600483815481106119ac576119ab6128e6565b5b905f5260205f20015481526020019081526020015f206006015f9054906101000a900460ff16155b156119e85781806119e49061250f565b9250505b808060010191505061194d565b505f8167ffffffffffffffff811115611a1157611a10612560565b5b604051908082528060200260200182016040528015611a4a57816020015b611a37611db7565b815260200190600190039081611a2f5790505b5090505f5f90505f5f90505b600480549050811015611dad574260035f60048481548110611a7b57611a7a6128e6565b5b905f5260205f20015481526020019081526020015f206005015411158015611add575060035f60048381548110611ab557611ab46128e6565b5b905f5260205f20015481526020019081526020015f206006015f9054906101000a900460ff16155b15611da05760405180610100016040528060035f60048581548110611b0557611b046128e6565b5b905f5260205f20015481526020019081526020015f205f0154815260200160035f60048581548110611b3a57611b396128e6565b5b905f5260205f20015481526020019081526020015f206001015f9054906101000a900473ffffffffffffffffffffffffffffffffffffffff1673ffffffffffffffffffffffffffffffffffffffff16815260200160035f60048581548110611ba557611ba46128e6565b5b905f5260205f20015481526020019081526020015f206002018054611bc9906124b2565b80601f0160208091040260200160405190810160405280929190818152602001828054611bf5906124b2565b8015611c405780601f10611c1757610100808354040283529160200191611c40565b820191905f5260205f20905b815481529060010190602001808311611c2357829003601f168201915b5050505050815260200160035f60048581548110611c6157611c606128e6565b5b905f5260205f20015481526020019081526020015f2060030154815260200160035f60048581548110611c9757611c966128e6565b5b905f5260205f20015481526020019081526020015f2060040154815260200160035f60048581548110611ccd57611ccc6128e6565b5b905f5260205f20015481526020019081526020015f2060050154815260200160035f60048581548110611d0357611d026128e6565b5b905f5260205f20015481526020019081526020015f206006015f9054906101000a900460ff161515815260200160035f60048581548110611d4757611d466128e6565b5b905f5260205f20015481526020019081526020015f2060060160019054906101000a900460ff161515815250838381518110611d8657611d856128e6565b5b60200260200101819052508180611d9c9061250f565b9250505b8080600101915050611a56565b5081935050505090565b6040518061010001604052805f81526020015f73ffffffffffffffffffffffffffffffffffffffff168152602001606081526020015f81526020015f81526020015f81526020015f151581526020015f151581525090565b5f5ffd5b5f5ffd5b5f819050919050565b611e2981611e17565b8114611e33575f5ffd5b50565b5f81359050611e4481611e20565b92915050565b5f60208284031215611e5f57611e5e611e0f565b5b5f611e6c84828501611e36565b91505092915050565b611e7e81611e17565b82525050565b5f73ffffffffffffffffffffffffffffffffffffffff82169050919050565b5f611ead82611e84565b9050919050565b611ebd81611ea3565b82525050565b5f81519050919050565b5f82825260208201905092915050565b8281835e5f83830152505050565b5f601f19601f8301169050919050565b5f611f0582611ec3565b611f0f8185611ecd565b9350611f1f818560208601611edd565b611f2881611eeb565b840191505092915050565b5f8115159050919050565b611f4781611f33565b82525050565b5f61010082019050611f615f83018b611e75565b611f6e602083018a611eb4565b8181036040830152611f808189611efb565b9050611f8f6060830188611e75565b611f9c6080830187611e75565b611fa960a0830186611e75565b611fb660c0830185611f3e565b611fc360e0830184611f3e565b9998505050505050505050565b611fd981611e17565b82525050565b611fe881611ea3565b82525050565b5f82825260208201905092915050565b5f61200882611ec3565b6120128185611fee565b9350612022818560208601611edd565b61202b81611eeb565b840191505092915050565b61203f81611f33565b82525050565b5f61010083015f83015161205b5f860182611fd0565b50602083015161206e6020860182611fdf565b50604083015184820360408601526120868282611ffe565b915050606083015161209b6060860182611fd0565b5060808301516120ae6080860182611fd0565b5060a08301516120c160a0860182611fd0565b5060c08301516120d460c0860182612036565b5060e08301516120e760e0860182612036565b508091505092915050565b5f6020820190508181035f83015261210a8184612045565b905092915050565b5f81519050919050565b5f82825260208201905092915050565b5f819050602082019050919050565b5f61010083015f8301516121515f860182611fd0565b5060208301516121646020860182611fdf565b506040830151848203604086015261217c8282611ffe565b91505060608301516121916060860182611fd0565b5060808301516121a46080860182611fd0565b5060a08301516121b760a0860182611fd0565b5060c08301516121ca60c0860182612036565b5060e08301516121dd60e0860182612036565b508091505092915050565b5f6121f3838361213b565b905092915050565b5f602082019050919050565b5f61221182612112565b61221b818561211c565b93508360208202850161222d8561212c565b805f5b85811015612268578484038952815161224985826121e8565b9450612254836121fb565b925060208a01995050600181019050612230565b50829750879550505050505092915050565b5f6020820190508181035f8301526122928184612207565b905092915050565b5f5ffd5b5f5ffd5b5f5ffd5b5f5f83601f8401126122bb576122ba61229a565b5b8235905067ffffffffffffffff8111156122d8576122d761229e565b5b6020830191508360018202830111156122f4576122f36122a2565b5b9250929050565b5f5f5f6040848603121561231257612311611e0f565b5b5f84013567ffffffffffffffff81111561232f5761232e611e13565b5b61233b868287016122a6565b9350935050602061234e86828701611e36565b9150509250925092565b61236181611ea3565b811461236b575f5ffd5b50565b5f8135905061237c81612358565b92915050565b5f6020828403121561239757612396611e0f565b5b5f6123a48482850161236e565b91505092915050565b5f6020820190506123c05f830184611e75565b92915050565b5f5f604083850312156123dc576123db611e0f565b5b5f6123e985828601611e36565b92505060206123fa8582860161236e565b9150509250929050565b5f6020820190506124175f830184611f3e565b92915050565b61242681611f33565b8114612430575f5ffd5b50565b5f813590506124418161241d565b92915050565b5f5f6040838503121561245d5761245c611e0f565b5b5f61246a85828601611e36565b925050602061247b85828601612433565b9150509250929050565b7f4e487b71000000000000000000000000000000000000000000000000000000005f52602260045260245ffd5b5f60028204905060018216806124c957607f821691505b6020821081036124dc576124db612485565b5b50919050565b7f4e487b71000000000000000000000000000000000000000000000000000000005f52601160045260245ffd5b5f61251982611e17565b91507fffffffffffffffffffffffffffffffffffffffffffffffffffffffffffffffff820361254b5761254a6124e2565b5b600182019050919050565b5f82905092915050565b7f4e487b71000000000000000000000000000000000000000000000000000000005f52604160045260245ffd5b5f819050815f5260205f209050919050565b5f6020601f8301049050919050565b5f82821b905092915050565b5f600883026125e97fffffffffffffffffffffffffffffffffffffffffffffffffffffffffffffffff826125ae565b6125f386836125ae565b95508019841693508086168417925050509392505050565b5f819050919050565b5f61262e61262961262484611e17565b61260b565b611e17565b9050919050565b5f819050919050565b61264783612614565b61265b61265382612635565b8484546125ba565b825550505050565b5f5f905090565b612672612663565b61267d81848461263e565b505050565b5b818110156126a0576126955f8261266a565b600181019050612683565b5050565b601f8211156126e5576126b68161258d565b6126bf8461259f565b810160208510156126ce578190505b6126e26126da8561259f565b830182612682565b50505b505050565b5f82821c905092915050565b5f6127055f19846008026126ea565b1980831691505092915050565b5f61271d83836126f6565b9150826002028217905092915050565b6127378383612556565b67ffffffffffffffff8111156127505761274f612560565b5b61275a82546124b2565b6127658282856126a4565b5f601f831160018114612792575f8415612780578287013590505b61278a8582612712565b8655506127f1565b601f1984166127a08661258d565b5f5b828110156127c7578489013582556001820191506020850194506020810190506127a2565b868310156127e457848901356127e0601f8916826126f6565b8355505b6001600288020188555050505b50505050505050565b5f61280482611e17565b915061280f83611e17565b925082820261281d81611e17565b91508282048414831517612834576128336124e2565b5b5092915050565b5f61284582611e17565b915061285083611e17565b9250828201905080821115612868576128676124e2565b5b92915050565b828183375f83830152505050565b5f6128878385611ecd565b935061289483858461286e565b61289d83611eeb565b840190509392505050565b5f6060820190506128bb5f830187611e75565b81810360208301526128ce81858761287c565b90506128dd6040830184611e75565b95945050505050565b7f4e487b71000000000000000000000000000000000000000000000000000000005f52603260045260245ffd5b5f6020820190506129265f830184611eb4565b92915050565b5f8151905061293a81611e20565b92915050565b5f6020828403121561295557612954611e0f565b5b5f6129628482850161292c565b91505092915050565b5f60608201905061297e5f830186611e75565b61298b6020830185611eb4565b6129986040830184611f3e565b94935050505056fea2646970667358221220dc48880f3ab2195021a18113e70c9aa3cfa33b63d45eb9732c0ee4fad335af9464736f6c634300081e0033",
    "linkReferences": {}
  },
  "methodIdentifiers": {
    "createProposal(string,uint256)": "35facf78",
    "executeTheProposal(uint256)": "c96c27c9",
    "getActiveProposals()": "5584c4f9",
    "getExecutedProposals()": "34592a28",
    "getFailedProposals()": "999fcae8",
    "getIsHasVoted(uint256,address)": "b8106469",
    "getIsProposalHasPassed(uint256)": "fe6e2b84",
    "getProposalDetail(uint256)": "07a9f02d",
    "getTotalProposalsCount()": "9724fc95",
    "getUserProposals(address)": "78ef1138",
    "proposals(uint256)": "013cf08b",
    "vote(uint256,bool)": "c9d27afe"
  },
  "id": 27
}