{
  "abi": [
    {
      "type": "constructor",
      "inputs": [
        {
          "name": "_treasury",
          "type": "address",
          "internalType": "address"
        }
      ],
      "stateMutability": "nonpayable"
    },
    {
      "type": "function",
      "name": "allowance",
      "inputs": [
        {
          "name": "owner",
          "type": "address",
          "internalType": "address"
        },
        {
          "name": "spender",
          "type": "address",
          "internalType": "address"
        }
      ],
      "outputs": [
        {
          "name": "",
          "type": "uint256",
          "internalType": "uint256"
        }
      ],
      "stateMutability": "view"
    },
    {
      "type": "function",
      "name": "approve",
      "inputs": [
        {
          "name": "spender",
          "type": "address",
          "internalType": "address"
        },
        {
          "name": "value",
          "type": "uint256",
          "internalType": "uint256"
        }
      ],
      "outputs": [
        {
          "name": "",
          "type": "bool",
          "internalType": "bool"
        }
      ],
      "stateMutability": "nonpayable"
    },
    {
      "type": "function",
      "name": "balanceOf",
      "inputs": [
        {
          "name": "account",
          "type": "address",
          "internalType": "address"
        }
      ],
      "outputs": [
        {
          "name": "",
          "type": "uint256",
          "internalType": "uint256"
        }
      ],
      "stateMutability": "view"
    },
    {
      "type": "function",
      "name": "decimals",
      "inputs": [],
      "outputs": [
        {
          "name": "",
          "type": "uint8",
          "internalType": "uint8"
        }
      ],
      "stateMutability": "view"
    },
    {
      "type": "function",
      "name": "getMintPrice",
      "inputs": [],
      "outputs": [
        {
          "name": "",
          "type": "uint256",
          "internalType": "uint256"
        }
      ],
      "stateMutability": "pure"
    },
    {
      "type": "function",
      "name": "mint",
      "inputs": [
        {
          "name": "_amount",
          "type": "uint256",
          "internalType": "uint256"
        }
      ],
      "outputs": [],
      "stateMutability": "payable"
    },
    {
      "type": "function",
      "name": "name",
      "inputs": [],
      "outputs": [
        {
          "name": "",
          "type": "string",
          "internalType": "string"
        }
      ],
      "stateMutability": "view"
    },
    {
      "type": "function",
      "name": "symbol",
      "inputs": [],
      "outputs": [
        {
          "name": "",
          "type": "string",
          "internalType": "string"
        }
      ],
      "stateMutability": "view"
    },
    {
      "type": "function",
      "name": "totalSupply",
      "inputs": [],
      "outputs": [
        {
          "name": "",
          "type": "uint256",
          "internalType": "uint256"
        }
      ],
      "stateMutability": "view"
    },
    {
      "type": "function",
      "name": "transfer",
      "inputs": [
        {
          "name": "to",
          "type": "address",
          "internalType": "address"
        },
        {
          "name": "value",
          "type": "uint256",
          "internalType": "uint256"
        }
      ],
      "outputs": [
        {
          "name": "",
          "type": "bool",
          "internalType": "bool"
        }
      ],
      "stateMutability": "nonpayable"
    },
    {
      "type": "function",
      "name": "transferFrom",
      "inputs": [
        {
          "name": "from",
          "type": "address",
          "internalType": "address"
        },
        {
          "name": "to",
          "type": "address",
          "internalType": "address"
        },
        {
          "name": "value",
          "type": "uint256",
          "internalType": "uint256"
        }
      ],
      "outputs": [
        {
          "name": "",
          "type": "bool",
          "internalType": "bool"
        }
      ],
      "stateMutability": "nonpayable"
    },
    {
      "type": "event",
      "name": "Approval",
      "inputs": [
        {
          "name": "owner",
          "type": "address",
          "indexed": true,
          "internalType": "address"
        },
        {
          "name": "spender",
          "type": "address",
          "indexed": true,
          "internalType": "address"
        },
        {
          "name": "value",
          "type": "uint256",
          "indexed": false,
          "internalType": "uint256"
        }
      ],
      "anonymous": false
    },
    {
      "type": "event",
      "name": "Transfer",
      "inputs": [
        {
          "name": "from",
          "type": "address",
          "indexed": true,
          "internalType": "address"
        },
        {
          "name": "to",
          "type": "address",
          "indexed": true,
          "internalType": "address"
        },
        {
          "name": "value",
          "type": "uint256",
          "indexed": false,
          "internalType": "uint256"
        }
      ],
      "anonymous": false
    },
    {
      "type": "error",
      "name": "AquaGovToken__NotEnoughETHSent",
      "inputs": [
        {
          "name": "sent",
          "type": "uint256",
          "internalType": "uint256"
        },
        {
          "name": "required",
          "type": "uint256",
          "internalType": "uint256"
        }
      ]
    },
    {
      "type": "error",
      "name": "AquaGovToken__TreasuryTransferFailed",
      "inputs": []
    },
    {
      "type": "error",
      "name": "ERC20InsufficientAllowance",
      "inputs": [
        {
          "name": "spender",
          "type": "address",
          "internalType": "address"
        },
        {
          "name": "allowance",
          "type": "uint256",
          "internalType": "uint256"
        },
        {
          "name": "needed",
          "type": "uint256",
          "internalType": "uint256"
        }
      ]
    },
    {
      "type": "error",
      "name": "ERC20InsufficientBalance",
      "inputs": [
        {
          "name": "sender",
          "type": "address",
          "internalType": "address"
        },
        {
          "name": "balance",
          "type": "uint256",
          "internalType": "uint256"
        },
        {
          "name": "needed",
          "type": "uint256",
          "internalType": "uint256"
        }
      ]
    },
    {
      "type": "error",
      "name": "ERC20InvalidApprover",
      "inputs": [
        {
          "name": "approver",
          "type": "address",
          "internalType": "address"
        }
      ]
    },
    {
      "type": "error",
      "name": "ERC20InvalidReceiver",
      "inputs": [
        {
          "name": "receiver",
          "type": "address",
          "internalType": "address"
        }
      ]
    },
    {
      "type": "error",
      "name": "ERC20InvalidSender",
      "inputs": [
        {
          "name": "sender",
          "type": "address",
          "internalType": "address"
        }
      ]
    },
    {
      "type": "error",
      "name": "ERC20InvalidSpender",
      "inputs": [
        {
          "name": "spender",
          "type": "address",
          "internalType": "address"
        }
      ]
    }
  ],
  "bytecode": {
    "object": "0x608060405234801561000f575f5ffd5b506040516115c63803806115c683398181016040528101906100319190610163565b6040518060400160405280601581526020017f4171756120476f7665726e616e636520546f6b656e00000000000000000000008152506040518060400160405280600481526020017f415155410000000000000000000000000000000000000000000000000000000081525081600390816100ac91906103cb565b5080600490816100bc91906103cb565b5050508060055f6101000a81548173ffffffffffffffffffffffffffffffffffffffff021916908373ffffffffffffffffffffffffffffffffffffffff1602179055505061049a565b5f5ffd5b5f73ffffffffffffffffffffffffffffffffffffffff82169050919050565b5f61013282610109565b9050919050565b61014281610128565b811461014c575f5ffd5b50565b5f8151905061015d81610139565b92915050565b5f6020828403121561017857610177610105565b5b5f6101858482850161014f565b91505092915050565b5f81519050919050565b7f4e487b71000000000000000000000000000000000000000000000000000000005f52604160045260245ffd5b7f4e487b71000000000000000000000000000000000000000000000000000000005f52602260045260245ffd5b5f600282049050600182168061020957607f821691505b60208210810361021c5761021b6101c5565b5b50919050565b5f819050815f5260205f209050919050565b5f6020601f8301049050919050565b5f82821b905092915050565b5f6008830261027e7fffffffffffffffffffffffffffffffffffffffffffffffffffffffffffffffff82610243565b6102888683610243565b95508019841693508086168417925050509392505050565b5f819050919050565b5f819050919050565b5f6102cc6102c76102c2846102a0565b6102a9565b6102a0565b9050919050565b5f819050919050565b6102e5836102b2565b6102f96102f1826102d3565b84845461024f565b825550505050565b5f5f905090565b610310610301565b61031b8184846102dc565b505050565b5b8181101561033e576103335f82610308565b600181019050610321565b5050565b601f8211156103835761035481610222565b61035d84610234565b8101602085101561036c578190505b61038061037885610234565b830182610320565b50505b505050565b5f82821c905092915050565b5f6103a35f1984600802610388565b1980831691505092915050565b5f6103bb8383610394565b9150826002028217905092915050565b6103d48261018e565b67ffffffffffffffff8111156103ed576103ec610198565b5b6103f782546101f2565b610402828285610342565b5f60209050601f831160018114610433575f8415610421578287015190505b61042b85826103b0565b865550610492565b601f19841661044186610222565b5f5b8281101561046857848901518255600182019150602085019450602081019050610443565b868310156104855784890151610481601f891682610394565b8355505b6001600288020188555050505b505050505050565b61111f806104a75f395ff3fe60806040526004361061009b575f3560e01c806370a082311161006357806370a082311461019557806395d89b41146101d1578063a0712d68146101fb578063a7f93ebd14610217578063a9059cbb14610241578063dd62ed3e1461027d5761009b565b806306fdde031461009f578063095ea7b3146100c957806318160ddd1461010557806323b872dd1461012f578063313ce5671461016b575b5f5ffd5b3480156100aa575f5ffd5b506100b36102b9565b6040516100c09190610cc4565b60405180910390f35b3480156100d4575f5ffd5b506100ef60048036038101906100ea9190610d75565b610349565b6040516100fc9190610dcd565b60405180910390f35b348015610110575f5ffd5b5061011961036b565b6040516101269190610df5565b60405180910390f35b34801561013a575f5ffd5b5061015560048036038101906101509190610e0e565b610374565b6040516101629190610dcd565b60405180910390f35b348015610176575f5ffd5b5061017f6103a2565b60405161018c9190610e79565b60405180910390f35b3480156101a0575f5ffd5b506101bb60048036038101906101b69190610e92565b6103aa565b6040516101c89190610df5565b60405180910390f35b3480156101dc575f5ffd5b506101e56103ef565b6040516101f29190610cc4565b60405180910390f35b61021560048036038101906102109190610ebd565b61047f565b005b348015610222575f5ffd5b5061022b6105a5565b6040516102389190610df5565b60405180910390f35b34801561024c575f5ffd5b5061026760048036038101906102629190610d75565b6105ad565b6040516102749190610dcd565b60405180910390f35b348015610288575f5ffd5b506102a3600480360381019061029e9190610ee8565b6105cf565b6040516102b09190610df5565b60405180910390f35b6060600380546102c890610f53565b80601f01602080910402602001604051908101604052809291908181526020018280546102f490610f53565b801561033f5780601f106103165761010080835404028352916020019161033f565b820191905f5260205f20905b81548152906001019060200180831161032257829003601f168201915b5050505050905090565b5f5f610353610651565b9050610360818585610658565b600191505092915050565b5f600254905090565b5f5f61037e610651565b905061038b85828561066a565b6103968585856106fd565b60019150509392505050565b5f6012905090565b5f5f5f8373ffffffffffffffffffffffffffffffffffffffff1673ffffffffffffffffffffffffffffffffffffffff1681526020019081526020015f20549050919050565b6060600480546103fe90610f53565b80601f016020809104026020016040519081016040528092919081815260200182805461042a90610f53565b80156104755780601f1061044c57610100808354040283529160200191610475565b820191905f5260205f20905b81548152906001019060200180831161045857829003601f168201915b5050505050905090565b5f60018261048d9190610fb0565b9050803410156104d65734816040517f4114a02f0000000000000000000000000000000000000000000000000000000081526004016104cd929190610ff1565b60405180910390fd5b6104e033836107ed565b5f60055f9054906101000a900473ffffffffffffffffffffffffffffffffffffffff1673ffffffffffffffffffffffffffffffffffffffff163460405161052690611045565b5f6040518083038185875af1925050503d805f8114610560576040519150601f19603f3d011682016040523d82523d5f602084013e610565565b606091505b50509050806105a0576040517fa6a308ed00000000000000000000000000000000000000000000000000000000815260040160405180910390fd5b505050565b5f6001905090565b5f5f6105b7610651565b90506105c48185856106fd565b600191505092915050565b5f60015f8473ffffffffffffffffffffffffffffffffffffffff1673ffffffffffffffffffffffffffffffffffffffff1681526020019081526020015f205f8373ffffffffffffffffffffffffffffffffffffffff1673ffffffffffffffffffffffffffffffffffffffff1681526020019081526020015f2054905092915050565b5f33905090565b610665838383600161086c565b505050565b5f61067584846105cf565b90507fffffffffffffffffffffffffffffffffffffffffffffffffffffffffffffffff8110156106f757818110156106e8578281836040517ffb8f41b20000000000000000000000000000000000000000000000000000000081526004016106df93929190611068565b60405180910390fd5b6106f684848484035f61086c565b5b50505050565b5f73ffffffffffffffffffffffffffffffffffffffff168373ffffffffffffffffffffffffffffffffffffffff160361076d575f6040517f96c6fd1e000000000000000000000000000000000000000000000000000000008152600401610764919061109d565b60405180910390fd5b5f73ffffffffffffffffffffffffffffffffffffffff168273ffffffffffffffffffffffffffffffffffffffff16036107dd575f6040517fec442f050000000000000000000000000000000000000000000000000000000081526004016107d4919061109d565b60405180910390fd5b6107e8838383610a3b565b505050565b5f73ffffffffffffffffffffffffffffffffffffffff168273ffffffffffffffffffffffffffffffffffffffff160361085d575f6040517fec442f05000000000000000000000000000000000000000000000000000000008152600401610854919061109d565b60405180910390fd5b6108685f8383610a3b565b5050565b5f73ffffffffffffffffffffffffffffffffffffffff168473ffffffffffffffffffffffffffffffffffffffff16036108dc575f6040517fe602df050000000000000000000000000000000000000000000000000000000081526004016108d3919061109d565b60405180910390fd5b5f73ffffffffffffffffffffffffffffffffffffffff168373ffffffffffffffffffffffffffffffffffffffff160361094c575f6040517f94280d62000000000000000000000000000000000000000000000000000000008152600401610943919061109d565b60405180910390fd5b8160015f8673ffffffffffffffffffffffffffffffffffffffff1673ffffffffffffffffffffffffffffffffffffffff1681526020019081526020015f205f8573ffffffffffffffffffffffffffffffffffffffff1673ffffffffffffffffffffffffffffffffffffffff1681526020019081526020015f20819055508015610a35578273ffffffffffffffffffffffffffffffffffffffff168473ffffffffffffffffffffffffffffffffffffffff167f8c5be1e5ebec7d5bd14f71427d1e84f3dd0314c0f7b2291e5b200ac8c7c3b92584604051610a2c9190610df5565b60405180910390a35b50505050565b5f73ffffffffffffffffffffffffffffffffffffffff168373ffffffffffffffffffffffffffffffffffffffff1603610a8b578060025f828254610a7f91906110b6565b92505081905550610b59565b5f5f5f8573ffffffffffffffffffffffffffffffffffffffff1673ffffffffffffffffffffffffffffffffffffffff1681526020019081526020015f2054905081811015610b14578381836040517fe450d38c000000000000000000000000000000000000000000000000000000008152600401610b0b93929190611068565b60405180910390fd5b8181035f5f8673ffffffffffffffffffffffffffffffffffffffff1673ffffffffffffffffffffffffffffffffffffffff1681526020019081526020015f2081905550505b5f73ffffffffffffffffffffffffffffffffffffffff168273ffffffffffffffffffffffffffffffffffffffff1603610ba0578060025f8282540392505081905550610bea565b805f5f8473ffffffffffffffffffffffffffffffffffffffff1673ffffffffffffffffffffffffffffffffffffffff1681526020019081526020015f205f82825401925050819055505b8173ffffffffffffffffffffffffffffffffffffffff168373ffffffffffffffffffffffffffffffffffffffff167fddf252ad1be2c89b69c2b068fc378daa952ba7f163c4a11628f55a4df523b3ef83604051610c479190610df5565b60405180910390a3505050565b5f81519050919050565b5f82825260208201905092915050565b8281835e5f83830152505050565b5f601f19601f8301169050919050565b5f610c9682610c54565b610ca08185610c5e565b9350610cb0818560208601610c6e565b610cb981610c7c565b840191505092915050565b5f6020820190508181035f830152610cdc8184610c8c565b905092915050565b5f5ffd5b5f73ffffffffffffffffffffffffffffffffffffffff82169050919050565b5f610d1182610ce8565b9050919050565b610d2181610d07565b8114610d2b575f5ffd5b50565b5f81359050610d3c81610d18565b92915050565b5f819050919050565b610d5481610d42565b8114610d5e575f5ffd5b50565b5f81359050610d6f81610d4b565b92915050565b5f5f60408385031215610d8b57610d8a610ce4565b5b5f610d9885828601610d2e565b9250506020610da985828601610d61565b9150509250929050565b5f8115159050919050565b610dc781610db3565b82525050565b5f602082019050610de05f830184610dbe565b92915050565b610def81610d42565b82525050565b5f602082019050610e085f830184610de6565b92915050565b5f5f5f60608486031215610e2557610e24610ce4565b5b5f610e3286828701610d2e565b9350506020610e4386828701610d2e565b9250506040610e5486828701610d61565b9150509250925092565b5f60ff82169050919050565b610e7381610e5e565b82525050565b5f602082019050610e8c5f830184610e6a565b92915050565b5f60208284031215610ea757610ea6610ce4565b5b5f610eb484828501610d2e565b91505092915050565b5f60208284031215610ed257610ed1610ce4565b5b5f610edf84828501610d61565b91505092915050565b5f5f60408385031215610efe57610efd610ce4565b5b5f610f0b85828601610d2e565b9250506020610f1c85828601610d2e565b9150509250929050565b7f4e487b71000000000000000000000000000000000000000000000000000000005f52602260045260245ffd5b5f6002820490506001821680610f6a57607f821691505b602082108103610f7d57610f7c610f26565b5b50919050565b7f4e487b71000000000000000000000000000000000000000000000000000000005f52601160045260245ffd5b5f610fba82610d42565b9150610fc583610d42565b9250828202610fd381610d42565b91508282048414831517610fea57610fe9610f83565b5b5092915050565b5f6040820190506110045f830185610de6565b6110116020830184610de6565b9392505050565b5f81905092915050565b50565b5f6110305f83611018565b915061103b82611022565b5f82019050919050565b5f61104f82611025565b9150819050919050565b61106281610d07565b82525050565b5f60608201905061107b5f830186611059565b6110886020830185610de6565b6110956040830184610de6565b949350505050565b5f6020820190506110b05f830184611059565b92915050565b5f6110c082610d42565b91506110cb83610d42565b92508282019050808211156110e3576110e2610f83565b5b9291505056fea264697066735822122034ffb0a267f8cd3ccd3e4d981e1befb3dd88bd1f51c7a518c1195e2a0d4cb1f964736f6c634300081e0033",
    "linkReferences": {}
  },
  "methodIdentifiers": {
    "allowance(address,address)": "dd62ed3e",
    "approve(address,uint256)": "095ea7b3",
    "balanceOf(address)": "70a08231",
    "decimals()": "313ce567",
    "getMintPrice()": "a7f93ebd",
    "mint(uint256)": "a0712d68",
    "name()": "06fdde03",
    "symbol()": "95d89b41",
    "totalSupply()": "18160ddd",
    "transfer(address,uint256)": "a9059cbb",
    "transferFrom(address,address,uint256)": "23b872dd"
  },
  "id": 29
}