{
  "abi": [
    {
      "type": "constructor",
      "inputs": [],
      "stateMutability": "nonpayable"
    },
    {
      "type": "receive",
      "stateMutability": "payable"
    },
    {
      "type": "function",
      "name": "owner",
      "inputs": [],
      "outputs": [
        {
          "name": "",
          "type": "address",
          "internalType": "address"
        }
      ],
      "stateMutability": "view"
    },
    {
      "type": "function",
      "name": "renounceOwnership",
      "inputs": [],
      "outputs": [],
      "stateMutability": "nonpayable"
    },
    {
      "type": "function",
      "name": "sendETH",
      "inputs": [
        {
          "name": "_to",
          "type": "address",
          "internalType": "address"
        },
        {
          "name": "_amount",
          "type": "uint256",
          "internalType": "uint256"
        }
      ],
      "outputs": [],
      "stateMutability": "nonpayable"
    },
    {
      "type": "function",
      "name": "transferOwnership",
      "inputs": [
        {
          "name": "newOwner",
          "type": "address",
          "internalType": "address"
        }
      ],
      "outputs": [],
      "stateMutability": "nonpayable"
    },
    {
      "type": "event",
      "name": "ETHSent",
      "inputs": [
        {
          "name": "to",
          "type": "address",
          "indexed": true,
          "internalType": "address"
        },
        {
          "name": "amount",
          "type": "uint256",
          "indexed": false,
          "internalType": "uint256"
        }
      ],
      "anonymous": false
    },
    {
      "type": "event",
      "name": "OwnershipTransferred",
      "inputs": [
        {
          "name": "previousOwner",
          "type": "address",
          "indexed": true,
          "internalType": "address"
        },
        {
          "name": "newOwner",
          "type": "address",
          "indexed": true,
          "internalType": "address"
        }
      ],
      "anonymous": false
    },
    {
      "type": "error",
      "name": "AquaDAOTreasury__ETHTransferFailed",
      "inputs": []
    },
    {
      "type": "error",
      "name": "AquaDAOTreasury__NotEnoughETH",
      "inputs": []
    },
    {
      "type": "error",
      "name": "OwnableInvalidOwner",
      "inputs": [
        {
          "name": "owner",
          "type": "address",
          "internalType": "address"
        }
      ]
    },
    {
      "type": "error",
      "name": "OwnableUnauthorizedAccount",
      "inputs": [
        {
          "name": "account",
          "type": "address",
          "internalType": "address"
        }
      ]
    }
  ],
  "bytecode": {
    "object": "0x608060405234801561000f575f5ffd5b50335f73ffffffffffffffffffffffffffffffffffffffff168173ffffffffffffffffffffffffffffffffffffffff1603610081575f6040517f1e4fbdf70000000000000000000000000000000000000000000000000000000081526004016100789190610196565b60405180910390fd5b6100908161009660201b60201c565b506101af565b5f5f5f9054906101000a900473ffffffffffffffffffffffffffffffffffffffff169050815f5f6101000a81548173ffffffffffffffffffffffffffffffffffffffff021916908373ffffffffffffffffffffffffffffffffffffffff1602179055508173ffffffffffffffffffffffffffffffffffffffff168173ffffffffffffffffffffffffffffffffffffffff167f8be0079c531659141344cd1fd0a4f28419497f9722a3daafe3b4186f6b6457e060405160405180910390a35050565b5f73ffffffffffffffffffffffffffffffffffffffff82169050919050565b5f61018082610157565b9050919050565b61019081610176565b82525050565b5f6020820190506101a95f830184610187565b92915050565b6105df806101bc5f395ff3fe608060405260043610610042575f3560e01c806364a197f31461004d578063715018a6146100755780638da5cb5b1461008b578063f2fde38b146100b557610049565b3661004957005b5f5ffd5b348015610058575f5ffd5b50610073600480360381019061006e91906104af565b6100dd565b005b348015610080575f5ffd5b50610089610211565b005b348015610096575f5ffd5b5061009f610224565b6040516100ac91906104fc565b60405180910390f35b3480156100c0575f5ffd5b506100db60048036038101906100d69190610515565b61024b565b005b6100e56102cf565b8047101561011f576040517f66f0e3e300000000000000000000000000000000000000000000000000000000815260040160405180910390fd5b5f8273ffffffffffffffffffffffffffffffffffffffff16826040516101449061056d565b5f6040518083038185875af1925050503d805f811461017e576040519150601f19603f3d011682016040523d82523d5f602084013e610183565b606091505b50509050806101be576040517f783224cd00000000000000000000000000000000000000000000000000000000815260040160405180910390fd5b8273ffffffffffffffffffffffffffffffffffffffff167f07e522f923c81306583f6ac561a0b016b750def4b9fba3fc2198249b036905e5836040516102049190610590565b60405180910390a2505050565b6102196102cf565b6102225f610356565b565b5f5f5f9054906101000a900473ffffffffffffffffffffffffffffffffffffffff16905090565b6102536102cf565b5f73ffffffffffffffffffffffffffffffffffffffff168173ffffffffffffffffffffffffffffffffffffffff16036102c3575f6040517f1e4fbdf70000000000000000000000000000000000000000000000000000000081526004016102ba91906104fc565b60405180910390fd5b6102cc81610356565b50565b6102d7610417565b73ffffffffffffffffffffffffffffffffffffffff166102f5610224565b73ffffffffffffffffffffffffffffffffffffffff161461035457610318610417565b6040517f118cdaa700000000000000000000000000000000000000000000000000000000815260040161034b91906104fc565b60405180910390fd5b565b5f5f5f9054906101000a900473ffffffffffffffffffffffffffffffffffffffff169050815f5f6101000a81548173ffffffffffffffffffffffffffffffffffffffff021916908373ffffffffffffffffffffffffffffffffffffffff1602179055508173ffffffffffffffffffffffffffffffffffffffff168173ffffffffffffffffffffffffffffffffffffffff167f8be0079c531659141344cd1fd0a4f28419497f9722a3daafe3b4186f6b6457e060405160405180910390a35050565b5f33905090565b5f5ffd5b5f73ffffffffffffffffffffffffffffffffffffffff82169050919050565b5f61044b82610422565b9050919050565b61045b81610441565b8114610465575f5ffd5b50565b5f8135905061047681610452565b92915050565b5f819050919050565b61048e8161047c565b8114610498575f5ffd5b50565b5f813590506104a981610485565b92915050565b5f5f604083850312156104c5576104c461041e565b5b5f6104d285828601610468565b92505060206104e38582860161049b565b9150509250929050565b6104f681610441565b82525050565b5f60208201905061050f5f8301846104ed565b92915050565b5f6020828403121561052a5761052961041e565b5b5f61053784828501610468565b91505092915050565b5f81905092915050565b50565b5f6105585f83610540565b91506105638261054a565b5f82019050919050565b5f6105778261054d565b9150819050919050565b61058a8161047c565b82525050565b5f6020820190506105a35f830184610581565b9291505056fea2646970667358221220da1c9cf3972d6f081fa7381de639aede801d295a7410baa254df50ba819a812164736f6c634300081e0033",
    "linkReferences": {}
  },
  "methodIdentifiers": {
    "owner()": "8da5cb5b",
    "renounceOwnership()": "715018a6",
    "sendETH(address,uint256)": "64a197f3",
    "transferOwnership(address)": "f2fde38b"
  },
  "id": 28
}